{
  "contractName": "dos",
  "abi": [
    {
      "inputs": [],
      "name": "dostestrevertcall",
      "outputs": [],
      "stateMutability": "nonpayable",
      "type": "function"
    }
  ],
  "bytecode": "0x608060405234801561000f575f80fd5b5061024e8061001d5f395ff3fe608060405234801561000f575f80fd5b5060043610610029575f3560e01c8063590198cf1461002d575b5f80fd5b610035610037565b005b5f5b600154811015610157575f808281526020019081526020015f205f9054906101000a900473ffffffffffffffffffffffffffffffffffffffff1673ffffffffffffffffffffffffffffffffffffffff1660025f805f8581526020019081526020015f205f9054906101000a900473ffffffffffffffffffffffffffffffffffffffff1673ffffffffffffffffffffffffffffffffffffffff1673ffffffffffffffffffffffffffffffffffffffff1681526020019081526020015f205460405161010290610187565b5f6040518083038185875af1925050503d805f811461013c576040519150601f19603f3d011682016040523d82523d5f602084013e610141565b606091505b505050808061014f906101d1565b915050610039565b50565b5f81905092915050565b50565b5f6101725f8361015a565b915061017d82610164565b5f82019050919050565b5f61019182610167565b9150819050919050565b7f4e487b71000000000000000000000000000000000000000000000000000000005f52601160045260245ffd5b5f819050919050565b5f6101db826101c8565b91507fffffffffffffffffffffffffffffffffffffffffffffffffffffffffffffffff820361020d5761020c61019b565b5b60018201905091905056fea26469706673582212208636bf53a565ad691922df37c05d550c6b54e38f614596e4c2ff280e3284f98764736f6c63430008150033",
  "immutableReferences": {},
  "source": "//SPX-Licence-Identifier: Undefined\n\npragma solidity ^0.8.19;\n\ncontract dos {\n\n    mapping(uint=>address) winners;\n    uint winnerscount;\n    mapping(address=>uint) winnersPrizes;\n    /**\n    Example One.\n    One user is a smart contract and on receive function , reverts it . \n    so remaining winners never get their prizes\n     */\n     function dostestrevertcall() public {\n        for(uint i=0;i<winnerscount;i++){\n            address(winners[i]).call{value:winnersPrizes[winners[i]]}(\"\");\n        }\n     }\n}",
  "sourcePath": "/home/aca/smartcontracts/flows/contracts/Doscontract.sol",
  "compiler": {
    "name": "solc",
    "version": "0.8.21+commit.d9974bed.Emscripten.clang"
  },
  "schemaVersion": "3.4.16",
  "updatedAt": "2025-04-28T19:03:21.013Z",
  "devdoc": {
    "kind": "dev",
    "methods": {},
    "version": 1
  },
  "userdoc": {
    "kind": "user",
    "methods": {
      "dostestrevertcall()": {
        "notice": "Example One. One user is a smart contract and on receive function , reverts it .  so remaining winners never get their prizes"
      }
    },
    "version": 1
  }
}