{
  "contractName": "dos",
  "abi": [
    {
      "inputs": [],
      "name": "testGriefing",
      "outputs": [],
      "stateMutability": "nonpayable",
      "type": "function"
    },
    {
      "inputs": [],
      "name": "fixGreifing",
      "outputs": [],
      "stateMutability": "nonpayable",
      "type": "function"
    },
    {
      "inputs": [],
      "name": "withdraw",
      "outputs": [],
      "stateMutability": "nonpayable",
      "type": "function"
    }
  ],
  "bytecode": "0x608060405234801561000f575f80fd5b506104e28061001d5f395ff3fe608060405234801561000f575f80fd5b506004361061003f575f3560e01c80633ccfd60b14610043578063771068bd1461004d578063ce39ffe914610057575b5f80fd5b61004b610061565b005b61005561012b565b005b61005f6102cb565b005b5f60035f3373ffffffffffffffffffffffffffffffffffffffff1673ffffffffffffffffffffffffffffffffffffffff1681526020019081526020015f205490505f60035f3373ffffffffffffffffffffffffffffffffffffffff1673ffffffffffffffffffffffffffffffffffffffff1681526020019081526020015f20819055503373ffffffffffffffffffffffffffffffffffffffff166108fc8290811502906040515f60405180830381858888f19350505050158015610127573d5f803e3d5ffd5b5050565b5f5b6001548110156102c85760025f805f8481526020019081526020015f205f9054906101000a900473ffffffffffffffffffffffffffffffffffffffff1673ffffffffffffffffffffffffffffffffffffffff1673ffffffffffffffffffffffffffffffffffffffff1681526020019081526020015f205460035f805f8581526020019081526020015f205f9054906101000a900473ffffffffffffffffffffffffffffffffffffffff1673ffffffffffffffffffffffffffffffffffffffff1673ffffffffffffffffffffffffffffffffffffffff1681526020019081526020015f208190555060025f805f8481526020019081526020015f205f9054906101000a900473ffffffffffffffffffffffffffffffffffffffff1673ffffffffffffffffffffffffffffffffffffffff1673ffffffffffffffffffffffffffffffffffffffff1681526020019081526020015f205f90555f808281526020019081526020015f205f6101000a81549073ffffffffffffffffffffffffffffffffffffffff021916905580806102c090610424565b91505061012d565b50565b5f5b6001548110156103eb575f808281526020019081526020015f205f9054906101000a900473ffffffffffffffffffffffffffffffffffffffff1673ffffffffffffffffffffffffffffffffffffffff1660025f805f8581526020019081526020015f205f9054906101000a900473ffffffffffffffffffffffffffffffffffffffff1673ffffffffffffffffffffffffffffffffffffffff1673ffffffffffffffffffffffffffffffffffffffff1681526020019081526020015f205460405161039690610498565b5f6040518083038185875af1925050503d805f81146103d0576040519150601f19603f3d011682016040523d82523d5f602084013e6103d5565b606091505b50505080806103e390610424565b9150506102cd565b50565b7f4e487b71000000000000000000000000000000000000000000000000000000005f52601160045260245ffd5b5f819050919050565b5f61042e8261041b565b91507fffffffffffffffffffffffffffffffffffffffffffffffffffffffffffffffff82036104605761045f6103ee565b5b600182019050919050565b5f81905092915050565b50565b5f6104835f8361046b565b915061048e82610475565b5f82019050919050565b5f6104a282610478565b915081905091905056fea26469706673582212209207ae23cf5e068370ee547881cf8ca5a1dc2a9343c50523fed73fc501ac71e364736f6c63430008150033",
  "immutableReferences": {},
  "source": "//SPX-Licence-Identifier: Undefined\n\npragma solidity ^0.8.19;\n\ncontract dos {\n\n    mapping(uint=>address) winners;\n    uint winnerscount;\n    mapping(address=>uint) winnersPrizes;\n    /**\n    Example One.\n    One user is a smart contract and on receive function , reverts it . \n    so remaining winners never get their prizes\n     */\n     function testGriefing() public {\n        for(uint i=0;i<winnerscount;i++){\n            address(winners[i]).call{value:winnersPrizes[winners[i]]}(\"\");\n        }\n     }\n\n    mapping(address=>uint) withdrawbox;\n     function fixGreifing() public{\n        for(uint i=0;i<winnerscount;i++){\n            withdrawbox[winners[i]] = winnersPrizes[winners[i]];\n            delete winnersPrizes[winners[i]];\n            delete winners[i];\n        }\n     }\n     function withdraw() public {\n        uint amount = withdrawbox[msg.sender];\n        withdrawbox[msg.sender] = 0;\n        payable(msg.sender).transfer(amount);\n     }\n}",
  "sourcePath": "/home/aca/smartcontracts/flows/contracts/Doscontract.sol",
  "compiler": {
    "name": "solc",
    "version": "0.8.21+commit.d9974bed.Emscripten.clang"
  },
  "schemaVersion": "3.4.16",
  "updatedAt": "2025-04-28T19:13:05.323Z",
  "devdoc": {
    "kind": "dev",
    "methods": {},
    "version": 1
  },
  "userdoc": {
    "kind": "user",
    "methods": {
      "testGriefing()": {
        "notice": "Example One. One user is a smart contract and on receive function , reverts it .  so remaining winners never get their prizes"
      }
    },
    "version": 1
  }
}