{
  "contractName": "Uncheckedcontract",
  "abi": [
    {
      "inputs": [],
      "name": "uncheckedtest",
      "outputs": [
        {
          "internalType": "uint256",
          "name": "",
          "type": "uint256"
        }
      ],
      "stateMutability": "nonpayable",
      "type": "function"
    }
  ],
  "bytecode": "0x608060405234801561000f575f80fd5b5060ba8061001c5f395ff3fe6080604052348015600e575f80fd5b50600436106026575f3560e01c8063072a887014602a575b5f80fd5b60306044565b604051603b9190606d565b60405180910390f35b5f8060fd90506001810190508091505090565b5f819050919050565b6067816057565b82525050565b5f602082019050607e5f8301846060565b9291505056fea26469706673582212206feb43d10838c754c400ff981e5fd0ae07d8bfeafe1f0e25383303b02a08cdd964736f6c63430008150033",
  "immutableReferences": {},
  "source": "//SPX-Licence-Identifier: Undefined\npragma solidity ^0.8.19;\n\ncontract Uncheckedcontract {\n    // since from solidity 0.8.0 overflow/underflow leads to revert this is a contract to make it possible\n\n    function uncheckedtest() public returns(uint256){\n        uint256 test = 2^256-1;\n        unchecked {\n            test +=1;\n        }\n        return test;\n    }\n}",
  "sourcePath": "/home/aca/smartcontracts/flows/contracts/Unckeckedcontract.sol",
  "compiler": {
    "name": "solc",
    "version": "0.8.21+commit.d9974bed.Emscripten.clang"
  },
  "schemaVersion": "3.4.16",
  "updatedAt": "2025-04-27T19:24:26.191Z",
  "devdoc": {
    "kind": "dev",
    "methods": {},
    "version": 1
  },
  "userdoc": {
    "kind": "user",
    "methods": {},
    "version": 1
  }
}